{
  "contractName": "IICO",
  "abi": [
    {
      "constant": true,
      "inputs": [],
      "name": "tokensForSale",
      "outputs": [
        {
          "name": "",
          "type": "uint256"
        }
      ],
      "payable": false,
      "stateMutability": "view",
      "type": "function"
    },
    {
      "constant": true,
      "inputs": [],
      "name": "sumAcceptedVirtualContrib",
      "outputs": [
        {
          "name": "",
          "type": "uint256"
        }
      ],
      "payable": false,
      "stateMutability": "view",
      "type": "function"
    },
    {
      "constant": true,
      "inputs": [],
      "name": "cutOffBidID",
      "outputs": [
        {
          "name": "",
          "type": "uint256"
        }
      ],
      "payable": false,
      "stateMutability": "view",
      "type": "function"
    },
    {
      "constant": true,
      "inputs": [
        {
          "name": "",
          "type": "address"
        },
        {
          "name": "",
          "type": "uint256"
        }
      ],
      "name": "contributorBidIDs",
      "outputs": [
        {
          "name": "",
          "type": "uint256"
        }
      ],
      "payable": false,
      "stateMutability": "view",
      "type": "function"
    },
    {
      "constant": true,
      "inputs": [],
      "name": "endTime",
      "outputs": [
        {
          "name": "",
          "type": "uint256"
        }
      ],
      "payable": false,
      "stateMutability": "view",
      "type": "function"
    },
    {
      "constant": true,
      "inputs": [],
      "name": "withdrawalLockTime",
      "outputs": [
        {
          "name": "",
          "type": "uint256"
        }
      ],
      "payable": false,
      "stateMutability": "view",
      "type": "function"
    },
    {
      "constant": true,
      "inputs": [
        {
          "name": "",
          "type": "uint256"
        }
      ],
      "name": "bids",
      "outputs": [
        {
          "name": "prev",
          "type": "uint256"
        },
        {
          "name": "next",
          "type": "uint256"
        },
        {
          "name": "maxVal",
          "type": "uint256"
        },
        {
          "name": "contrib",
          "type": "uint256"
        },
        {
          "name": "bonus",
          "type": "uint256"
        },
        {
          "name": "contributor",
          "type": "address"
        },
        {
          "name": "withdrawn",
          "type": "bool"
        },
        {
          "name": "redeemed",
          "type": "bool"
        }
      ],
      "payable": false,
      "stateMutability": "view",
      "type": "function"
    },
    {
      "constant": true,
      "inputs": [],
      "name": "maxBonus",
      "outputs": [
        {
          "name": "",
          "type": "uint256"
        }
      ],
      "payable": false,
      "stateMutability": "view",
      "type": "function"
    },
    {
      "constant": true,
      "inputs": [],
      "name": "lastBidID",
      "outputs": [
        {
          "name": "",
          "type": "uint256"
        }
      ],
      "payable": false,
      "stateMutability": "view",
      "type": "function"
    },
    {
      "constant": true,
      "inputs": [],
      "name": "startTime",
      "outputs": [
        {
          "name": "",
          "type": "uint256"
        }
      ],
      "payable": false,
      "stateMutability": "view",
      "type": "function"
    },
    {
      "constant": true,
      "inputs": [],
      "name": "finalized",
      "outputs": [
        {
          "name": "",
          "type": "bool"
        }
      ],
      "payable": false,
      "stateMutability": "view",
      "type": "function"
    },
    {
      "constant": true,
      "inputs": [],
      "name": "sumAcceptedContrib",
      "outputs": [
        {
          "name": "",
          "type": "uint256"
        }
      ],
      "payable": false,
      "stateMutability": "view",
      "type": "function"
    },
    {
      "constant": true,
      "inputs": [],
      "name": "endFullBonusTime",
      "outputs": [
        {
          "name": "",
          "type": "uint256"
        }
      ],
      "payable": false,
      "stateMutability": "view",
      "type": "function"
    },
    {
      "constant": true,
      "inputs": [],
      "name": "token",
      "outputs": [
        {
          "name": "",
          "type": "address"
        }
      ],
      "payable": false,
      "stateMutability": "view",
      "type": "function"
    },
    {
      "inputs": [
        {
          "name": "_startTime",
          "type": "uint256"
        },
        {
          "name": "_fullBonusLength",
          "type": "uint256"
        },
        {
          "name": "_partialWithdrawalLength",
          "type": "uint256"
        },
        {
          "name": "_withdrawalLockUpLength",
          "type": "uint256"
        },
        {
          "name": "_maxBonus",
          "type": "uint256"
        }
      ],
      "payable": false,
      "stateMutability": "nonpayable",
      "type": "constructor"
    },
    {
      "payable": true,
      "stateMutability": "payable",
      "type": "fallback"
    },
    {
      "constant": false,
      "inputs": [
        {
          "name": "_token",
          "type": "address"
        }
      ],
      "name": "setToken",
      "outputs": [],
      "payable": false,
      "stateMutability": "nonpayable",
      "type": "function"
    },
    {
      "constant": false,
      "inputs": [
        {
          "name": "_maxVal",
          "type": "uint256"
        },
        {
          "name": "_next",
          "type": "uint256"
        }
      ],
      "name": "submitBid",
      "outputs": [],
      "payable": true,
      "stateMutability": "payable",
      "type": "function"
    },
    {
      "constant": false,
      "inputs": [
        {
          "name": "_maxVal",
          "type": "uint256"
        },
        {
          "name": "_next",
          "type": "uint256"
        }
      ],
      "name": "searchAndBid",
      "outputs": [],
      "payable": true,
      "stateMutability": "payable",
      "type": "function"
    },
    {
      "constant": false,
      "inputs": [
        {
          "name": "_bidID",
          "type": "uint256"
        }
      ],
      "name": "withdraw",
      "outputs": [],
      "payable": false,
      "stateMutability": "nonpayable",
      "type": "function"
    },
    {
      "constant": false,
      "inputs": [
        {
          "name": "_maxIt",
          "type": "uint256"
        }
      ],
      "name": "finalize",
      "outputs": [],
      "payable": false,
      "stateMutability": "nonpayable",
      "type": "function"
    },
    {
      "constant": false,
      "inputs": [
        {
          "name": "_bidID",
          "type": "uint256"
        }
      ],
      "name": "redeem",
      "outputs": [],
      "payable": false,
      "stateMutability": "nonpayable",
      "type": "function"
    },
    {
      "constant": true,
      "inputs": [
        {
          "name": "_maxVal",
          "type": "uint256"
        },
        {
          "name": "_nextStart",
          "type": "uint256"
        }
      ],
      "name": "search",
      "outputs": [
        {
          "name": "nextInsert",
          "type": "uint256"
        }
      ],
      "payable": false,
      "stateMutability": "view",
      "type": "function"
    },
    {
      "constant": true,
      "inputs": [],
      "name": "bonus",
      "outputs": [
        {
          "name": "b",
          "type": "uint256"
        }
      ],
      "payable": false,
      "stateMutability": "view",
      "type": "function"
    },
    {
      "constant": true,
      "inputs": [
        {
          "name": "_contributor",
          "type": "address"
        }
      ],
      "name": "totalContrib",
      "outputs": [
        {
          "name": "contribution",
          "type": "uint256"
        }
      ],
      "payable": false,
      "stateMutability": "view",
      "type": "function"
    },
    {
      "constant": true,
      "inputs": [],
      "name": "valuation",
      "outputs": [
        {
          "name": "localSumAcceptedContrib",
          "type": "uint256"
        },
        {
          "name": "localSumAcceptedVirtualContrib",
          "type": "uint256"
        }
      ],
      "payable": false,
      "stateMutability": "view",
      "type": "function"
    }
  ],
  "bytecode": "0x606060405260006004557fffffffffffffffffffffffffffffffffffffffffffffffffffffffffffffffff600d55341561003857600080fd5b60405160a0806119ea83398101604052808051906020019091908051906020019091908051906020019091908051906020019091908051906020019091905050336000806101000a81548173ffffffffffffffffffffffffffffffffffffffff021916908373ffffffffffffffffffffffffffffffffffffffff1602179055508460058190555083600554016006819055508260065401600781905550816007540160088190555080600b81905550610100604051908101604052807fffffffffffffffffffffffffffffffffffffffffffffffffffffffffffffffff81526020017fffffffffffffffffffffffffffffffffffffffffffffffffffffffffffffffff8152602001600081526020016000815260200160008152602001600073ffffffffffffffffffffffffffffffffffffffff1681526020016000151581526020016000151581525060026000808152602001908152602001600020600082015181600001556020820151816001015560408201518160020155606082015181600301556080820151816004015560a08201518160050160006101000a81548173ffffffffffffffffffffffffffffffffffffffff021916908373ffffffffffffffffffffffffffffffffffffffff16021790555060c08201518160050160146101000a81548160ff02191690831515021790555060e08201518160050160156101000a81548160ff0219169083151502179055509050506101006040519081016040528060008152602001600081526020017fffffffffffffffffffffffffffffffffffffffffffffffffffffffffffffffff81526020016000815260200160008152602001600073ffffffffffffffffffffffffffffffffffffffff16815260200160001515815260200160001515815250600260007fffffffffffffffffffffffffffffffffffffffffffffffffffffffffffffffff8152602001908152602001600020600082015181600001556020820151816001015560408201518160020155606082015181600301556080820151816004015560a08201518160050160006101000a81548173ffffffffffffffffffffffffffffffffffffffff021916908373ffffffffffffffffffffffffffffffffffffffff16021790555060c08201518160050160146101000a81548160ff02191690831515021790555060e08201518160050160156101000a81548160ff021916908315150217905550905050505050505061161a806103d06000396000f30060606040526004361061013e576000357c0100000000000000000000000000000000000000000000000000000000900463ffffffff16806305261aea1461031e57806312aef8c314610341578063144fa6d71461036a578063152713b3146103a35780631ae9fe6a146103cc5780631def6bad146103f557806321a7cfe41461044b5780632e1a7d4d1461047b5780633197cbb61461049e57806334f732e8146104c75780634423c5f1146104f057806354c5b6961461058c57806357f196fa146105b55780635e7c85b1146105de57806375b4d78c1461062b57806378e9792514610654578063b3f05b971461067d578063b821da1b146106aa578063c68ee9cd146106cb578063ce160edd1461070b578063db006a751461072c578063dc382cbf1461074f578063f0d6cc7014610778578063fc0c546a146107a1575b600080341415801561015257506005544210155b801561015f575060085442105b156101b3576101ae7ffffffffffffffffffffffffffffffffffffffffffffffffffffffffffffffffe7fffffffffffffffffffffffffffffffffffffffffffffffffffffffffffffffff6107f6565b61031b565b6000341480156101cf5750600c60009054906101000a900460ff165b1561031a57600090505b600360003373ffffffffffffffffffffffffffffffffffffffff1673ffffffffffffffffffffffffffffffffffffffff168152602001908152602001600020805490508110156103195760026000600360003373ffffffffffffffffffffffffffffffffffffffff1673ffffffffffffffffffffffffffffffffffffffff1681526020019081526020016000208381548110151561027357fe5b906000526020600020900154815260200190815260200160002060050160159054906101000a900460ff16151561030957610304600360003373ffffffffffffffffffffffffffffffffffffffff1673ffffffffffffffffffffffffffffffffffffffff168152602001908152602001600020828154811015156102f357fe5b906000526020600020900154610a30565b61030e565b600080fd5b8060010190506101d9565b5b5b50005b341561032957600080fd5b61033f6004808035906020019091905050610c88565b005b341561034c57600080fd5b610354610ebc565b6040518082815260200191505060405180910390f35b341561037557600080fd5b6103a1600480803573ffffffffffffffffffffffffffffffffffffffff16906020019091905050610ec2565b005b34156103ae57600080fd5b6103b6611081565b6040518082815260200191505060405180910390f35b34156103d757600080fd5b6103df611087565b6040518082815260200191505060405180910390f35b341561040057600080fd5b610435600480803573ffffffffffffffffffffffffffffffffffffffff1690602001909190803590602001909190505061108d565b6040518082815260200191505060405180910390f35b341561045657600080fd5b61045e6110be565b604051808381526020018281526020019250505060405180910390f35b341561048657600080fd5b61049c6004808035906020019091905050611182565b005b34156104a957600080fd5b6104b16112f8565b6040518082815260200191505060405180910390f35b34156104d257600080fd5b6104da6112fe565b6040518082815260200191505060405180910390f35b34156104fb57600080fd5b6105116004808035906020019091905050611304565b604051808981526020018881526020018781526020018681526020018581526020018473ffffffffffffffffffffffffffffffffffffffff1673ffffffffffffffffffffffffffffffffffffffff16815260200183151515158152602001821515151581526020019850505050505050505060405180910390f35b341561059757600080fd5b61059f611386565b6040518082815260200191505060405180910390f35b34156105c057600080fd5b6105c861138c565b6040518082815260200191505060405180910390f35b34156105e957600080fd5b610615600480803573ffffffffffffffffffffffffffffffffffffffff16906020019091905050611392565b6040518082815260200191505060405180910390f35b341561063657600080fd5b61063e611467565b6040518082815260200191505060405180910390f35b341561065f57600080fd5b6106676114b0565b6040518082815260200191505060405180910390f35b341561068857600080fd5b6106906114b6565b604051808215151515815260200191505060405180910390f35b6106c960048080359060200190919080359060200190919050506107f6565b005b34156106d657600080fd5b6106f560048080359060200190919080359060200190919050506114c9565b6040518082815260200191505060405180910390f35b61072a6004808035906020019091908035906020019091905050611554565b005b341561073757600080fd5b61074d6004808035906020019091905050610a30565b005b341561075a57600080fd5b61076261156b565b6040518082815260200191505060405180910390f35b341561078357600080fd5b61078b611571565b6040518082815260200191505060405180910390f35b34156107ac57600080fd5b6107b4611577565b604051808273ffffffffffffffffffffffffffffffffffffffff1673ffffffffffffffffffffffffffffffffffffffff16815260200191505060405180910390f35b600080600060026000858152602001908152602001600020925082600001549150600260008381526020019081526020016000209050806002015485101580156108435750826002015485105b151561084e57600080fd5b6005544210158015610861575060085442105b151561086c57600080fd5b6004600081546001019190508190555060045481600101819055506004548360000181905550610100604051908101604052808381526020018581526020018681526020013481526020016108bf611467565b81526020013373ffffffffffffffffffffffffffffffffffffffff16815260200160001515815260200160001515815250600260006004548152602001908152602001600020600082015181600001556020820151816001015560408201518160020155606082015181600301556080820151816004015560a08201518160050160006101000a81548173ffffffffffffffffffffffffffffffffffffffff021916908373ffffffffffffffffffffffffffffffffffffffff16021790555060c08201518160050160146101000a81548160ff02191690831515021790555060e08201518160050160156101000a81548160ff021916908315150217905550905050600360003373ffffffffffffffffffffffffffffffffffffffff1673ffffffffffffffffffffffffffffffffffffffff1681526020019081526020016000208054806001018281610a12919061159d565b91600052602060002090016000600454909190915055505050505050565b60008060026000848152602001908152602001600020915060026000600d5481526020019081526020016000209050600c60009054906101000a900460ff161515610a7a57600080fd5b8160050160159054906101000a900460ff16151515610a9857600080fd5b60018260050160156101000a81548160ff021916908315150217905550806002015482600201541180610ae0575080600201548260020154148015610adf5750600d548310155b5b15610c1a57600960009054906101000a900473ffffffffffffffffffffffffffffffffffffffff1673ffffffffffffffffffffffffffffffffffffffff1663a9059cbb8360050160009054906101000a900473ffffffffffffffffffffffffffffffffffffffff16600f54633b9aca008660040154876003015402811515610b6457fe5b04866003015401600a5402811515610b7857fe5b046040518363ffffffff167c0100000000000000000000000000000000000000000000000000000000028152600401808373ffffffffffffffffffffffffffffffffffffffff1673ffffffffffffffffffffffffffffffffffffffff16815260200182815260200192505050602060405180830381600087803b1515610bfd57600080fd5b5af11515610c0a57600080fd5b5050506040518051905050610c83565b8160050160009054906101000a900473ffffffffffffffffffffffffffffffffffffffff1673ffffffffffffffffffffffffffffffffffffffff166108fc83600301549081150290604051600060405180830381858888f193505050501515610c8257600080fd5b5b505050565b6000806000806000806008544210151515610ca257600080fd5b600c60009054906101000a900460ff16151515610cbe57600080fd5b600d549550600e549450600f549350600092505b8683108015610cee5750600c60009054906101000a900460ff16155b15610e9e576002600087815260200190815260200160002091508160020154858360030154011015610d5357816003015485019450633b9aca008260040154836003015402811515610d3c57fe5b048260030154018401935081600001549550610e93565b6001600c60006101000a81548160ff0219169083151502179055508482600201541015610d81576000610d89565b848260020154035b905081600301548110610da0578160030154610da2565b805b90508160050160009054906101000a900473ffffffffffffffffffffffffffffffffffffffff1673ffffffffffffffffffffffffffffffffffffffff166108fc828460030154039081150290604051600060405180830381858888f1935050505050808260030181905550816003015485019450633b9aca008260040154836003015402811515610e2f57fe5b0482600301540184019350600160009054906101000a900473ffffffffffffffffffffffffffffffffffffffff1673ffffffffffffffffffffffffffffffffffffffff166108fc869081150290604051600060405180830381858888f19350505050505b826001019250610cd2565b85600d8190555084600e8190555083600f8190555050505050505050565b600a5481565b3373ffffffffffffffffffffffffffffffffffffffff166000809054906101000a900473ffffffffffffffffffffffffffffffffffffffff1673ffffffffffffffffffffffffffffffffffffffff16141515610f1d57600080fd5b6000600960009054906101000a900473ffffffffffffffffffffffffffffffffffffffff1673ffffffffffffffffffffffffffffffffffffffff16141515610f6457600080fd5b80600960006101000a81548173ffffffffffffffffffffffffffffffffffffffff021916908373ffffffffffffffffffffffffffffffffffffffff160217905550600960009054906101000a900473ffffffffffffffffffffffffffffffffffffffff1673ffffffffffffffffffffffffffffffffffffffff166370a08231306040518263ffffffff167c0100000000000000000000000000000000000000000000000000000000028152600401808273ffffffffffffffffffffffffffffffffffffffff1673ffffffffffffffffffffffffffffffffffffffff168152602001915050602060405180830381600087803b151561106157600080fd5b5af1151561106e57600080fd5b50505060405180519050600a8190555050565b600f5481565b600d5481565b6003602052816000526040600020818154811015156110a857fe5b9060005260206000209001600091509150505481565b6000806000806000600d5492505b60011561117b57600260008481526020019081526020016000209150816002015485836003015401101561113357816003015485019450633b9aca00826004015483600301540281151561111c57fe5b048260030154018401935081600001549250611176565b848260020154101561114657600061114e565b848260020154035b90508085019450633b9aca008260040154820281151561116a57fe5b0481018401935061117b565b6110cc565b5050509091565b6000806002600084815260200190815260200160002091508160050160009054906101000a900473ffffffffffffffffffffffffffffffffffffffff1673ffffffffffffffffffffffffffffffffffffffff163373ffffffffffffffffffffffffffffffffffffffff161415156111f857600080fd5b6007544210151561120857600080fd5b8160050160149054906101000a900460ff1615151561122657600080fd5b60018260050160146101000a81548160ff021916908315150217905550600654421061126d5760065460075403426007540383600301540281151561126757fe5b04611273565b81600301545b90508160030154811115151561128557fe5b80826003016000828254039250508190555060038260040160008282548115156112ab57fe5b04925050819055503373ffffffffffffffffffffffffffffffffffffffff166108fc829081150290604051600060405180830381858888f1935050505015156112f357600080fd5b505050565b60085481565b60075481565b60026020528060005260406000206000915090508060000154908060010154908060020154908060030154908060040154908060050160009054906101000a900473ffffffffffffffffffffffffffffffffffffffff16908060050160149054906101000a900460ff16908060050160159054906101000a900460ff16905088565b600b5481565b60045481565b600080600090505b600360008473ffffffffffffffffffffffffffffffffffffffff1673ffffffffffffffffffffffffffffffffffffffff168152602001908152602001600020805490508110156114615760026000600360008673ffffffffffffffffffffffffffffffffffffffff1673ffffffffffffffffffffffffffffffffffffffff1681526020019081526020016000208381548110151561143457fe5b9060005260206000209001548152602001908152602001600020600301548201915080600101905061139a565b50919050565b600060065442101561147d57600b5490506114ad565b60085442111561149057600090506114ad565b600654600854034260085403600b54028115156114a957fe5b0490505b90565b60055481565b600c60009054906101000a900460ff1681565b6000806000806000808694505b8315156115465760026000868152602001908152602001600020925082600001549150600260008381526020019081526020016000209050806002015488101561152257819450611541565b82600201548810151561153b5782600101549450611540565b600193505b5b6114d6565b849550505050505092915050565b6115678261156284846114c9565b6107f6565b5050565b600e5481565b60065481565b600960009054906101000a900473ffffffffffffffffffffffffffffffffffffffff1681565b8154818355818115116115c4578183600052602060002091820191016115c391906115c9565b5b505050565b6115eb91905b808211156115e75760008160009055506001016115cf565b5090565b905600a165627a7a723058207e10b52f60f406b71bb1709ec10da3a6a0f0474512f850fff235bec16c05a46e0029",
  "source": "/** @title Interactive Coin Offering\n *  @author Clément Lesaege - <clement@lesaege.com>\n */\n\npragma solidity ^0.4.18;\n\nimport \"zeppelin-solidity/contracts/token/ERC20/ERC20.sol\";\n\n/** @title Interactive Coin Offering\n *  This contract implements the Interactive Coin Offering token sale as described in this paper:\n *  https://people.cs.uchicago.edu/~teutsch/papers/ico.pdf\n *  Implementation details and modifications compared to the paper:\n *  -A fixed amount of tokens is sold. This allows more flexibility for the distribution of the remaining tokens (rounds, team tokens which can be preallocated, non-initial sell of some cryptographic assets).\n *  -The valuation pointer is only moved when the sale is over. This greatly reduces the amount of write operations and code complexity. However, at least one party must make one or multiple calls to finalize the sale.\n *  -Buckets are not used as they are not required and increase code complexity.\n *  -The bid submitter must provide the insertion spot. A search of the insertion spot is still done in the contract just in case the one provided was wrong or other bids were added between when the TX got signed and executed, but giving the search starting point greatly lowers gas consumption.\n *  -Automatic withdrawals are only possible at the end of the sale. This decreases code complexity and possible interactions between different parts of the code.\n *  -We put a full bonus, free withdrawal period at the beginning. This allows everyone to have a chance to place bids with full bonus and avoids clogging the network just after the sale starts. Note that at this moment, no information can be taken for granted as parties can withdraw freely.\n *  -Calling the fallback function while sending ETH places a bid with an infinite maximum valuation. This allows buyers who want to buy no matter the price not need to use a specific interface and just send ETH. Without ETH, a call to the fallback function redeems the bids of the caller.\n */\ncontract IICO {\n\n    /* *** General *** */\n    address owner;       // The one setting up the contract.\n    address beneficiary; // The address which will get the funds.\n\n    /* *** Bid *** */\n    uint constant HEAD = 0;            // Minimum value used for both the maxVal and bidID of the head of the linked list.\n    uint constant TAIL = uint(-1);     // Maximum value used for both the maxVal and bidID of the tail of the linked list.\n    uint constant INFINITY = uint(-2); // A value so high that a bid using it is guaranteed to succeed. Still lower than TAIL to be placed before TAIL.\n    // A bid to buy tokens as long as the personal maximum valuation is not exceeded.\n    // Bids are in a sorted doubly linked list.\n    // They are sorted in ascending order by (maxVal,bidID) where bidID is the ID and key of the bid in the mapping.\n    // The list contains two artificial bids HEAD and TAIL having respectively the minimum and maximum bidID and maxVal.\n    struct Bid {\n        /* *** Linked List Members *** */\n        uint prev;            // bidID of the previous element.\n        uint next;            // bidID of the next element.\n        /* ***     Bid Members     *** */\n        uint maxVal;          // Maximum valuation in wei beyond which the contributor prefers refund.\n        uint contrib;         // Contribution in wei.\n        uint bonus;           // The numerator of the bonus that will be divided by BONUS_DIVISOR.\n        address contributor;  // The contributor who placed the bid.\n        bool withdrawn;       // True if the bid has been withdrawn.\n        bool redeemed;        // True if the ETH or tokens have been redeemed.\n    }\n    mapping (uint => Bid) public bids; // Map bidID to bid.\n    mapping (address => uint[]) public contributorBidIDs; // Map contributor to a list of its bid ID.\n    uint public lastBidID = 0; // The last bidID not accounting TAIL.\n\n    /* *** Sale parameters *** */\n    uint public startTime;                      // When the sale starts.\n    uint public endFullBonusTime;               // When the full bonus period ends.\n    uint public withdrawalLockTime;             // When the contributors can't withdraw their bids manually anymore.\n    uint public endTime;                        // When the sale ends.\n    ERC20 public token;                         // The token which is sold.\n    uint public tokensForSale;                  // The amount of tokens which will be sold.\n    uint public maxBonus;                       // The maximum bonus. Will be normalized by BONUS_DIVISOR. For example for a 20% bonus, _maxBonus must be 0.2 * BONUS_DIVISOR.\n    uint constant BONUS_DIVISOR = 1E9;          // The quantity we need to divide by to normalize the bonus.\n\n    /* *** Finalization variables *** */\n    bool public finalized;                 // True when the cutting bid has been found. The following variables are final only after finalized==true.\n    uint public cutOffBidID = TAIL;        // The first accepted bid. All bids after it are accepted.\n    uint public sumAcceptedContrib;        // The sum of accepted contributions.\n    uint public sumAcceptedVirtualContrib; // The sum of virtual (taking into account bonuses) contributions.\n\n    modifier onlyOwner{ require(owner == msg.sender); _; }\n\n    /* *** Functions Modifying the state *** */\n\n    /** @dev Constructor. First contract set up (tokens will also need to be transferred to the contract and then setToken needs to be called to finish the setup).\n     *  @param _startTime Time the sale will start in seconds since the Unix Epoch.\n     *  @param _fullBonusLength Amount of seconds the sale lasts in the full bonus period.\n     *  @param _partialWithdrawalLength Amount of seconds the sale lasts in the partial withdrawal period.\n     *  @param _withdrawalLockUpLength Amount of seconds the sale lasts in the withdrawal lockup period.\n     *  @param _maxBonus The maximum bonus. Will be normalized by BONUS_DIVISOR. For example for a 20% bonus, _maxBonus must be 0.2 * BONUS_DIVISOR.\n     */\n    function IICO(uint _startTime, uint _fullBonusLength, uint _partialWithdrawalLength, uint _withdrawalLockUpLength, uint _maxBonus) public {\n        owner = msg.sender;\n        startTime = _startTime;\n        endFullBonusTime = startTime + _fullBonusLength;\n        withdrawalLockTime = endFullBonusTime + _partialWithdrawalLength;\n        endTime = withdrawalLockTime + _withdrawalLockUpLength;\n        maxBonus = _maxBonus;\n\n        // Add the virtual bids. This simplifies other functions.\n        bids[HEAD] = Bid({\n            prev: TAIL,\n            next: TAIL,\n            maxVal: HEAD,\n            contrib: 0,\n            bonus: 0,\n            contributor: 0x0,\n            withdrawn: false,\n            redeemed: false\n        });\n        bids[TAIL] = Bid({\n            prev: HEAD,\n            next: HEAD,\n            maxVal: TAIL,\n            contrib: 0,\n            bonus: 0,\n            contributor: 0x0,\n            withdrawn: false,\n            redeemed: false\n        });\n    }\n\n    /** @dev Set the token. Must only be called after the IICO contract receives the tokens to be sold.\n     *  @param _token The token to be sold.\n     */\n    function setToken(ERC20 _token) public onlyOwner {\n        require(address(token) == 0x0);\n\n        token = _token;\n        tokensForSale = token.balanceOf(this);\n    }\n\n    /** @dev Submit a bid. The caller must give the exact position the bid must be inserted into in the list.\n     *  In practice, use searchAndBid to avoid the position being incorrect due to a new bid being inserted and changing the position the bid must be inserted at.\n     *  @param _maxVal The maximum valuation given by the contributor. If the amount raised is higher, the bid is cancelled and the contributor refunded because it prefers a refund instead of this level of dilution. To buy no matter what, use INFINITY.\n     *  @param _next The bidID of the next bid in the list.\n     */\n    function submitBid(uint _maxVal, uint _next) public payable {\n        Bid storage nextBid = bids[_next];\n        uint prev = nextBid.prev;\n        Bid storage prevBid = bids[prev];\n        require(_maxVal >= prevBid.maxVal && _maxVal < nextBid.maxVal); // The new bid maxVal is higher than the previous one and strictly lower than the next one.\n        require(now >= startTime && now < endTime); // Check that the bids are still open.\n\n        ++lastBidID; // Increment the lastBidID. It will be the new bid's ID.\n        // Update the pointers of neighboring bids.\n        prevBid.next = lastBidID;\n        nextBid.prev = lastBidID;\n\n        // Insert the bid.\n        bids[lastBidID] = Bid({\n            prev: prev,\n            next: _next,\n            maxVal: _maxVal,\n            contrib: msg.value,\n            bonus: bonus(),\n            contributor: msg.sender,\n            withdrawn: false,\n            redeemed: false\n        });\n\n        // Add the bid to the list of bids by this contributor.\n        contributorBidIDs[msg.sender].push(lastBidID);\n    }\n\n\n    /** @dev Search for the correct insertion spot and submit a bid.\n     *  This function is O(n), where n is the amount of bids between the initial search position and the insertion position.\n     *  The UI must first call search to find the best point to start the search so it consumes the least amount of gas possible.\n     *  Using this function instead of calling submitBid directly prevents it from failing in the case where new bids are added before the transaction is executed.\n     *  @param _maxVal The maximum valuation given by the contributor. If the amount raised is higher, the bid is cancelled and the contributor refunded because it prefers a refund instead of this level of dilution. To buy no matter what, use INFINITY.\n     *  @param _next The bidID of the next bid in the list.\n     */\n    function searchAndBid(uint _maxVal, uint _next) public payable {\n        submitBid(_maxVal, search(_maxVal,_next));\n    }\n\n    /** @dev Withdraw a bid. Can only be called before the end of the withdrawal lock period.\n     *  Withdrawing a bid divides its bonus by 3.\n     *  For retrieving ETH after an automatic withdrawal, use the redeem function.\n     *  @param _bidID The ID of the bid to withdraw.\n     */\n    function withdraw(uint _bidID) public {\n        Bid storage bid = bids[_bidID];\n        require(msg.sender == bid.contributor);\n        require(now < withdrawalLockTime);\n        require(!bid.withdrawn);\n\n        bid.withdrawn = true;\n\n        // Before endFullBonusTime, everything is refunded. Otherwise, an amount decreasing linearly from endFullBonusTime to withdrawalLockTime is refunded.\n        uint refund = (now < endFullBonusTime) ? bid.contrib : (bid.contrib * (withdrawalLockTime - now)) / (withdrawalLockTime - endFullBonusTime);\n        assert(refund <= bid.contrib); // Make sure that we don't refund more than the contribution. Would a bug arise, we prefer blocking withdrawal than letting someone steal money.\n        bid.contrib -= refund;\n        bid.bonus /= 3; // Divide the bonus by 3.\n\n        msg.sender.transfer(refund);\n    }\n\n    /** @dev Finalize by finding the cut-off bid.\n     *  Since the amount of bids is not bounded, this function may have to be called multiple times.\n     *  The function is O(min(n,_maxIt)) where n is the amount of bids. In total it will perform O(n) computations, possibly in multiple calls.\n     *  Each call only has a O(1) storage write operations.\n     *  @param _maxIt The maximum amount of bids to go through. This value must be set in order to not exceed the gas limit.\n     */\n    function finalize(uint _maxIt) public {\n        require(now >= endTime);\n        require(!finalized);\n\n        // Make local copies of the finalization variables in order to avoid modifying storage in order to save gas.\n        uint localCutOffBidID = cutOffBidID;\n        uint localSumAcceptedContrib = sumAcceptedContrib;\n        uint localSumAcceptedVirtualContrib = sumAcceptedVirtualContrib;\n\n        // Search for the cut-off bid while adding the contributions.\n        for (uint it = 0; it < _maxIt && !finalized; ++it) {\n            Bid storage bid = bids[localCutOffBidID];\n            if (bid.contrib+localSumAcceptedContrib < bid.maxVal) { // We haven't found the cut-off yet.\n                localSumAcceptedContrib        += bid.contrib;\n                localSumAcceptedVirtualContrib += bid.contrib + (bid.contrib * bid.bonus) / BONUS_DIVISOR;\n                localCutOffBidID = bid.prev; // Go to the previous bid.\n            } else { // We found the cut-off. This bid will be taken partially.\n                finalized = true;\n                uint contribCutOff = bid.maxVal >= localSumAcceptedContrib ? bid.maxVal - localSumAcceptedContrib : 0; // The amount of the contribution of the cut-off bid that can stay in the sale without spilling over the maxVal.\n                contribCutOff = contribCutOff < bid.contrib ? contribCutOff : bid.contrib; // The amount that stays in the sale should not be more than the original contribution. This line is not required but it is added as an extra security measure.\n                bid.contributor.send(bid.contrib-contribCutOff); // Send the non-accepted part. Use send in order to not block if the contributor's fallback reverts.\n                bid.contrib = contribCutOff; // Update the contribution value.\n                localSumAcceptedContrib += bid.contrib;\n                localSumAcceptedVirtualContrib += bid.contrib + (bid.contrib * bid.bonus) / BONUS_DIVISOR;\n                beneficiary.send(localSumAcceptedContrib); // Use send in order to not block if the contributor's fallback reverts.\n            }\n        }\n\n        // Update storage.\n        cutOffBidID = localCutOffBidID;\n        sumAcceptedContrib = localSumAcceptedContrib;\n        sumAcceptedVirtualContrib = localSumAcceptedVirtualContrib;\n    }\n\n    /** @dev Redeem a bid. If the bid is accepted, send the tokens, otherwise refund the ETH.\n     *  Note that anyone can call this function, not only the party which made the bid.\n     *  @param _bidID ID of the bid to withdraw.\n     */\n    function redeem(uint _bidID) public {\n        Bid storage bid = bids[_bidID];\n        Bid storage cutOffBid = bids[cutOffBidID];\n        require(finalized);\n        require(!bid.redeemed);\n\n        bid.redeemed=true;\n        if (bid.maxVal > cutOffBid.maxVal || (bid.maxVal == cutOffBid.maxVal && _bidID >= cutOffBidID)) // Give tokens if the bid is accepted.\n            token.transfer(bid.contributor, (tokensForSale * (bid.contrib + (bid.contrib * bid.bonus) / BONUS_DIVISOR)) / sumAcceptedVirtualContrib);\n        else                                                                                            // Reimburse ETH otherwise.\n            bid.contributor.transfer(bid.contrib);\n    }\n\n    /** @dev Fallback. Make a bid if ETH are sent. Redeem all the bids of the contributor otherwise.\n     *  This allows users to bid and get their tokens back using only send operations.\n     */\n    function () public payable {\n        if (msg.value != 0 && now >= startTime && now < endTime) // Make a bid with an infinite maxVal if some ETH was sent.\n            submitBid(INFINITY, TAIL);\n        else if (msg.value == 0 && finalized)                    // Else, redeem all the non redeemed bids if no ETH was sent.\n            for (uint i = 0; i < contributorBidIDs[msg.sender].length; ++i)\n                if (!bids[contributorBidIDs[msg.sender][i]].redeemed)\n                    redeem(contributorBidIDs[msg.sender][i]);\n        else                                                     // Otherwise, no actions are possible.\n            revert();\n    }\n\n    /* *** Constant and View *** */\n\n    /** @dev Search for the correct insertion spot of a bid.\n     *  This function is O(n), where n is the amount of bids between the initial search position and the insertion position.\n     *  @param _maxVal The maximum valuation given by the contributor. Or INFINITY if no maximum valuation is given.\n     *  @param _nextStart The bidID of the next bid from the initial position to start the search from.\n     *  @return nextInsert The bidID of the next bid from the position the bid must be inserted at.\n     */\n    function search(uint _maxVal, uint _nextStart) constant public returns(uint nextInsert) {\n        uint next = _nextStart;\n        bool found;\n\n        while(!found) { // While we aren't at the insertion point.\n            Bid storage nextBid = bids[next];\n            uint prev = nextBid.prev;\n            Bid storage prevBid = bids[prev];\n\n            if (_maxVal < prevBid.maxVal)       // It should be inserted before.\n                next = prev;\n            else if (_maxVal >= nextBid.maxVal) // It should be inserted after. The second value we sort by is bidID. Those are increasing, thus if the next bid is of the same maxVal, we should insert after it.\n                next = nextBid.next;\n            else                                // We found the insertion point.\n                found = true;\n        }\n\n        return next;\n    }\n\n    /** @dev Return the current bonus. The bonus only changes in 1/BONUS_DIVISOR increments.\n     *  @return b The bonus expressed in 1/BONUS_DIVISOR. Will be normalized by BONUS_DIVISOR. For example for a 20% bonus, _maxBonus must be 0.2 * BONUS_DIVISOR.\n     */\n    function bonus() public constant returns(uint b) {\n        if (now < endFullBonusTime) // Full bonus.\n            return maxBonus;\n        else if (now > endTime)     // Assume no bonus after end.\n            return 0;\n        else                        // Compute the bonus decreasing linearly from endFullBonusTime to endTime.\n            return (maxBonus * (endTime - now)) / (endTime - endFullBonusTime);\n    }\n\n    /** @dev Get the total contribution of an address.\n     *  This can be used for a KYC threshold.\n     *  This function is O(n) where n is the amount of bids made by the contributor.\n     *  This means that the contributor can make totalContrib(contributor) revert due to an out of gas error on purpose.\n     *  @param _contributor The contributor whose contribution will be returned.\n     *  @return contribution The total contribution of the contributor.\n     */\n    function totalContrib(address _contributor) public constant returns (uint contribution) {\n        for (uint i = 0; i < contributorBidIDs[_contributor].length; ++i)\n            contribution += bids[contributorBidIDs[_contributor][i]].contrib;\n    }\n\n    /* *** Interface Views *** */\n\n    /**\n     * @dev Get the current valuations, with bonus not taken into account and taken into account.\n     * @return The current valuations, with bonus not taken into account and taken into account.\n     */\n    function valuation() public view returns (uint localSumAcceptedContrib, uint localSumAcceptedVirtualContrib) {\n        uint localCutOffBidID = cutOffBidID;\n\n        // Search for the cut-off bid while adding the contributions.\n        while (true) {\n            Bid storage bid = bids[localCutOffBidID];\n            if (bid.contrib + localSumAcceptedContrib < bid.maxVal) { // We haven't found the cut-off yet.\n                localSumAcceptedContrib        += bid.contrib;\n                localSumAcceptedVirtualContrib += bid.contrib + (bid.contrib * bid.bonus) / BONUS_DIVISOR;\n                localCutOffBidID = bid.prev; // Go to the previous bid.\n            } else { // We found the cut-off bid. This bid will be taken partially.\n                uint contribCutOff = bid.maxVal >= localSumAcceptedContrib ? bid.maxVal - localSumAcceptedContrib : 0; // The amount of the contribution of the cut-off bid that can stay in the sale without spilling over the maxVal.\n                localSumAcceptedContrib += contribCutOff;\n                localSumAcceptedVirtualContrib += contribCutOff + (contribCutOff * bid.bonus) / BONUS_DIVISOR;\n                break;\n            }\n        }\n    }\n}\n",
  "sourcePath": "/Users/epiqueras/Work/kleros/openiico-contract/contracts/IICO.sol",
  "compiler": {
    "name": "solc",
    "version": "0.4.21+commit.dfe3193c.Emscripten.clang"
  },
  "schemaVersion": "2.0.0",
  "updatedAt": "2018-04-18T15:34:57.657Z"
}