{
  "contractName": "LevelWhitelistedIICO",
  "abi": [
    {
      "constant": false,
      "inputs": [
        {
          "name": "_maxIt",
          "type": "uint256"
        }
      ],
      "name": "finalize",
      "outputs": [],
      "payable": false,
      "stateMutability": "nonpayable",
      "type": "function"
    },
    {
      "constant": true,
      "inputs": [],
      "name": "tokensForSale",
      "outputs": [
        {
          "name": "",
          "type": "uint256"
        }
      ],
      "payable": false,
      "stateMutability": "view",
      "type": "function"
    },
    {
      "constant": false,
      "inputs": [
        {
          "name": "_token",
          "type": "address"
        }
      ],
      "name": "setToken",
      "outputs": [],
      "payable": false,
      "stateMutability": "nonpayable",
      "type": "function"
    },
    {
      "constant": true,
      "inputs": [],
      "name": "sumAcceptedVirtualContrib",
      "outputs": [
        {
          "name": "",
          "type": "uint256"
        }
      ],
      "payable": false,
      "stateMutability": "view",
      "type": "function"
    },
    {
      "constant": true,
      "inputs": [],
      "name": "cutOffBidID",
      "outputs": [
        {
          "name": "",
          "type": "uint256"
        }
      ],
      "payable": false,
      "stateMutability": "view",
      "type": "function"
    },
    {
      "constant": true,
      "inputs": [
        {
          "name": "",
          "type": "address"
        },
        {
          "name": "",
          "type": "uint256"
        }
      ],
      "name": "contributorBidIDs",
      "outputs": [
        {
          "name": "",
          "type": "uint256"
        }
      ],
      "payable": false,
      "stateMutability": "view",
      "type": "function"
    },
    {
      "constant": true,
      "inputs": [],
      "name": "whitelister",
      "outputs": [
        {
          "name": "",
          "type": "address"
        }
      ],
      "payable": false,
      "stateMutability": "view",
      "type": "function"
    },
    {
      "constant": true,
      "inputs": [
        {
          "name": "",
          "type": "address"
        }
      ],
      "name": "baseWhitelist",
      "outputs": [
        {
          "name": "",
          "type": "bool"
        }
      ],
      "payable": false,
      "stateMutability": "view",
      "type": "function"
    },
    {
      "constant": false,
      "inputs": [
        {
          "name": "_bidID",
          "type": "uint256"
        }
      ],
      "name": "withdraw",
      "outputs": [],
      "payable": false,
      "stateMutability": "nonpayable",
      "type": "function"
    },
    {
      "constant": true,
      "inputs": [],
      "name": "endTime",
      "outputs": [
        {
          "name": "",
          "type": "uint256"
        }
      ],
      "payable": false,
      "stateMutability": "view",
      "type": "function"
    },
    {
      "constant": true,
      "inputs": [],
      "name": "withdrawalLockTime",
      "outputs": [
        {
          "name": "",
          "type": "uint256"
        }
      ],
      "payable": false,
      "stateMutability": "view",
      "type": "function"
    },
    {
      "constant": true,
      "inputs": [],
      "name": "beneficiary",
      "outputs": [
        {
          "name": "",
          "type": "address"
        }
      ],
      "payable": false,
      "stateMutability": "view",
      "type": "function"
    },
    {
      "constant": true,
      "inputs": [
        {
          "name": "",
          "type": "uint256"
        }
      ],
      "name": "bids",
      "outputs": [
        {
          "name": "prev",
          "type": "uint256"
        },
        {
          "name": "next",
          "type": "uint256"
        },
        {
          "name": "maxValuation",
          "type": "uint256"
        },
        {
          "name": "contrib",
          "type": "uint256"
        },
        {
          "name": "bonus",
          "type": "uint256"
        },
        {
          "name": "contributor",
          "type": "address"
        },
        {
          "name": "withdrawn",
          "type": "bool"
        },
        {
          "name": "redeemed",
          "type": "bool"
        }
      ],
      "payable": false,
      "stateMutability": "view",
      "type": "function"
    },
    {
      "constant": true,
      "inputs": [],
      "name": "valuationAndCutOff",
      "outputs": [
        {
          "name": "valuation",
          "type": "uint256"
        },
        {
          "name": "virtualValuation",
          "type": "uint256"
        },
        {
          "name": "currentCutOffBidID",
          "type": "uint256"
        },
        {
          "name": "currentCutOffBidmaxValuation",
          "type": "uint256"
        },
        {
          "name": "currentCutOffBidContrib",
          "type": "uint256"
        }
      ],
      "payable": false,
      "stateMutability": "view",
      "type": "function"
    },
    {
      "constant": true,
      "inputs": [],
      "name": "maxBonus",
      "outputs": [
        {
          "name": "",
          "type": "uint256"
        }
      ],
      "payable": false,
      "stateMutability": "view",
      "type": "function"
    },
    {
      "constant": true,
      "inputs": [],
      "name": "lastBidID",
      "outputs": [
        {
          "name": "",
          "type": "uint256"
        }
      ],
      "payable": false,
      "stateMutability": "view",
      "type": "function"
    },
    {
      "constant": true,
      "inputs": [
        {
          "name": "_contributor",
          "type": "address"
        }
      ],
      "name": "totalContrib",
      "outputs": [
        {
          "name": "contribution",
          "type": "uint256"
        }
      ],
      "payable": false,
      "stateMutability": "view",
      "type": "function"
    },
    {
      "constant": true,
      "inputs": [],
      "name": "bonus",
      "outputs": [
        {
          "name": "b",
          "type": "uint256"
        }
      ],
      "payable": false,
      "stateMutability": "view",
      "type": "function"
    },
    {
      "constant": true,
      "inputs": [],
      "name": "startTime",
      "outputs": [
        {
          "name": "",
          "type": "uint256"
        }
      ],
      "payable": false,
      "stateMutability": "view",
      "type": "function"
    },
    {
      "constant": true,
      "inputs": [],
      "name": "owner",
      "outputs": [
        {
          "name": "",
          "type": "address"
        }
      ],
      "payable": false,
      "stateMutability": "view",
      "type": "function"
    },
    {
      "constant": true,
      "inputs": [],
      "name": "maximumBaseContribution",
      "outputs": [
        {
          "name": "",
          "type": "uint256"
        }
      ],
      "payable": false,
      "stateMutability": "view",
      "type": "function"
    },
    {
      "constant": true,
      "inputs": [],
      "name": "finalized",
      "outputs": [
        {
          "name": "",
          "type": "bool"
        }
      ],
      "payable": false,
      "stateMutability": "view",
      "type": "function"
    },
    {
      "constant": true,
      "inputs": [
        {
          "name": "",
          "type": "address"
        }
      ],
      "name": "reinforcedWhitelist",
      "outputs": [
        {
          "name": "",
          "type": "bool"
        }
      ],
      "payable": false,
      "stateMutability": "view",
      "type": "function"
    },
    {
      "constant": true,
      "inputs": [
        {
          "name": "_maxValuation",
          "type": "uint256"
        },
        {
          "name": "_nextStart",
          "type": "uint256"
        }
      ],
      "name": "search",
      "outputs": [
        {
          "name": "nextInsert",
          "type": "uint256"
        }
      ],
      "payable": false,
      "stateMutability": "view",
      "type": "function"
    },
    {
      "constant": false,
      "inputs": [
        {
          "name": "_maxValuation",
          "type": "uint256"
        },
        {
          "name": "_next",
          "type": "uint256"
        }
      ],
      "name": "searchAndBid",
      "outputs": [],
      "payable": true,
      "stateMutability": "payable",
      "type": "function"
    },
    {
      "constant": false,
      "inputs": [
        {
          "name": "_bidID",
          "type": "uint256"
        }
      ],
      "name": "redeem",
      "outputs": [],
      "payable": false,
      "stateMutability": "nonpayable",
      "type": "function"
    },
    {
      "constant": true,
      "inputs": [],
      "name": "sumAcceptedContrib",
      "outputs": [
        {
          "name": "",
          "type": "uint256"
        }
      ],
      "payable": false,
      "stateMutability": "view",
      "type": "function"
    },
    {
      "constant": true,
      "inputs": [],
      "name": "endFullBonusTime",
      "outputs": [
        {
          "name": "",
          "type": "uint256"
        }
      ],
      "payable": false,
      "stateMutability": "view",
      "type": "function"
    },
    {
      "constant": true,
      "inputs": [],
      "name": "token",
      "outputs": [
        {
          "name": "",
          "type": "address"
        }
      ],
      "payable": false,
      "stateMutability": "view",
      "type": "function"
    },
    {
      "inputs": [
        {
          "name": "_startTime",
          "type": "uint256"
        },
        {
          "name": "_fullBonusLength",
          "type": "uint256"
        },
        {
          "name": "_partialWithdrawalLength",
          "type": "uint256"
        },
        {
          "name": "_withdrawalLockUpLength",
          "type": "uint256"
        },
        {
          "name": "_maxBonus",
          "type": "uint256"
        },
        {
          "name": "_beneficiary",
          "type": "address"
        },
        {
          "name": "_maximumBaseContribution",
          "type": "uint256"
        }
      ],
      "payable": false,
      "stateMutability": "nonpayable",
      "type": "constructor"
    },
    {
      "payable": true,
      "stateMutability": "payable",
      "type": "fallback"
    },
    {
      "anonymous": false,
      "inputs": [
        {
          "indexed": true,
          "name": "contributor",
          "type": "address"
        },
        {
          "indexed": true,
          "name": "bidID",
          "type": "uint256"
        },
        {
          "indexed": true,
          "name": "time",
          "type": "uint256"
        }
      ],
      "name": "BidSubmitted",
      "type": "event"
    },
    {
      "constant": false,
      "inputs": [
        {
          "name": "_maxValuation",
          "type": "uint256"
        },
        {
          "name": "_next",
          "type": "uint256"
        }
      ],
      "name": "submitBid",
      "outputs": [],
      "payable": true,
      "stateMutability": "payable",
      "type": "function"
    },
    {
      "constant": false,
      "inputs": [
        {
          "name": "_whitelister",
          "type": "address"
        }
      ],
      "name": "setWhitelister",
      "outputs": [],
      "payable": false,
      "stateMutability": "nonpayable",
      "type": "function"
    },
    {
      "constant": false,
      "inputs": [
        {
          "name": "_buyersToWhitelist",
          "type": "address[]"
        }
      ],
      "name": "addBaseWhitelist",
      "outputs": [],
      "payable": false,
      "stateMutability": "nonpayable",
      "type": "function"
    },
    {
      "constant": false,
      "inputs": [
        {
          "name": "_buyersToWhitelist",
          "type": "address[]"
        }
      ],
      "name": "addReinforcedWhitelist",
      "outputs": [],
      "payable": false,
      "stateMutability": "nonpayable",
      "type": "function"
    },
    {
      "constant": false,
      "inputs": [
        {
          "name": "_buyersToRemove",
          "type": "address[]"
        }
      ],
      "name": "removeBaseWhitelist",
      "outputs": [],
      "payable": false,
      "stateMutability": "nonpayable",
      "type": "function"
    },
    {
      "constant": false,
      "inputs": [
        {
          "name": "_buyersToRemove",
          "type": "address[]"
        }
      ],
      "name": "removeReinforcedWhitelist",
      "outputs": [],
      "payable": false,
      "stateMutability": "nonpayable",
      "type": "function"
    }
  ],
  "bytecode": "0x608060405260006004557fffffffffffffffffffffffffffffffffffffffffffffffffffffffffffffffff600d5534801561003957600080fd5b5060405160e0806125be83398101806040528101908080519060200190929190805190602001909291908051906020019092919080519060200190929190805190602001909291908051906020019092919080519060200190929190505050868686868686336000806101000a81548173ffffffffffffffffffffffffffffffffffffffff021916908373ffffffffffffffffffffffffffffffffffffffff1602179055508560058190555084600554016006819055508360065401600781905550826007540160088190555081600b8190555080600160006101000a81548173ffffffffffffffffffffffffffffffffffffffff021916908373ffffffffffffffffffffffffffffffffffffffff160217905550610100604051908101604052807fffffffffffffffffffffffffffffffffffffffffffffffffffffffffffffffff81526020017fffffffffffffffffffffffffffffffffffffffffffffffffffffffffffffffff8152602001600081526020016000815260200160008152602001600073ffffffffffffffffffffffffffffffffffffffff1681526020016000151581526020016000151581525060026000808152602001908152602001600020600082015181600001556020820151816001015560408201518160020155606082015181600301556080820151816004015560a08201518160050160006101000a81548173ffffffffffffffffffffffffffffffffffffffff021916908373ffffffffffffffffffffffffffffffffffffffff16021790555060c08201518160050160146101000a81548160ff02191690831515021790555060e08201518160050160156101000a81548160ff0219169083151502179055509050506101006040519081016040528060008152602001600081526020017fffffffffffffffffffffffffffffffffffffffffffffffffffffffffffffffff81526020016000815260200160008152602001600073ffffffffffffffffffffffffffffffffffffffff16815260200160001515815260200160001515815250600260007fffffffffffffffffffffffffffffffffffffffffffffffffffffffffffffffff8152602001908152602001600020600082015181600001556020820151816001015560408201518160020155606082015181600301556080820151816004015560a08201518160050160006101000a81548173ffffffffffffffffffffffffffffffffffffffff021916908373ffffffffffffffffffffffffffffffffffffffff16021790555060c08201518160050160146101000a81548160ff02191690831515021790555060e08201518160050160156101000a81548160ff0219169083151502179055509050505050505050508060108190555050505050505050612178806104466000396000f3006080604052600436106101b7576000357c0100000000000000000000000000000000000000000000000000000000900463ffffffff16806305261aea14610395578063106c6441146103c257806312aef8c314610428578063144fa6d714610453578063152713b3146104965780631552cb04146104c15780631ae9fe6a146105275780631def6bad1461055257806322758a4a146105b35780632c2f93d51461060a5780632e1a7d4d146106655780633197cbb61461069257806334f732e8146106bd57806338af3eed146106e85780634423c5f11461073f57806347ab58ec146107e557806354c5b6961461082c57806357f196fa146108575780635e7c85b11461088257806375b4d78c146108d957806378e979251461090457806380999b711461092f5780638da5cb5b14610995578063b196aabb146109ec578063b3f05b9714610a17578063b821da1b14610a46578063c1f6004514610a70578063c68ee9cd14610acb578063ce160edd14610b16578063db006a7514610b40578063dc382cbf14610b6d578063f0d6cc7014610b98578063f98f5b9214610bc3578063fc0c546a14610c06578063ffbd26ce14610c5d575b60008034141580156101cb57506005544210155b80156101d8575060085442105b1561022c576102277ffffffffffffffffffffffffffffffffffffffffffffffffffffffffffffffffe7fffffffffffffffffffffffffffffffffffffffffffffffffffffffffffffffff610cc3565b610392565b6000341480156102485750600c60009054906101000a900460ff165b1561038c57600090505b600360003373ffffffffffffffffffffffffffffffffffffffff1673ffffffffffffffffffffffffffffffffffffffff168152602001908152602001600020805490508110156103875760026000600360003373ffffffffffffffffffffffffffffffffffffffff1673ffffffffffffffffffffffffffffffffffffffff168152602001908152602001600020838154811015156102ec57fe5b9060005260206000200154815260200190815260200160002060050160159054906101000a900460ff16151561037c5761037b600360003373ffffffffffffffffffffffffffffffffffffffff1673ffffffffffffffffffffffffffffffffffffffff1681526020019081526020016000208281548110151561036b57fe5b9060005260206000200154610d95565b5b806001019050610252565b610391565b600080fd5b5b50005b3480156103a157600080fd5b506103c060048036038101908080359060200190929190505050611023565b005b3480156103ce57600080fd5b5061042660048036038101908080359060200190820180359060200190808060200260200160405190810160405280939291908181526020018383602002808284378201915050505050509192919290505050611257565b005b34801561043457600080fd5b5061043d611341565b6040518082815260200191505060405180910390f35b34801561045f57600080fd5b50610494600480360381019080803573ffffffffffffffffffffffffffffffffffffffff169060200190929190505050611347565b005b3480156104a257600080fd5b506104ab611541565b6040518082815260200191505060405180910390f35b3480156104cd57600080fd5b5061052560048036038101908080359060200190820180359060200190808060200260200160405190810160405280939291908181526020018383602002808284378201915050505050509192919290505050611547565b005b34801561053357600080fd5b5061053c611631565b6040518082815260200191505060405180910390f35b34801561055e57600080fd5b5061059d600480360381019080803573ffffffffffffffffffffffffffffffffffffffff16906020019092919080359060200190929190505050611637565b6040518082815260200191505060405180910390f35b3480156105bf57600080fd5b506105c8611667565b604051808273ffffffffffffffffffffffffffffffffffffffff1673ffffffffffffffffffffffffffffffffffffffff16815260200191505060405180910390f35b34801561061657600080fd5b5061064b600480360381019080803573ffffffffffffffffffffffffffffffffffffffff16906020019092919050505061168d565b604051808215151515815260200191505060405180910390f35b34801561067157600080fd5b50610690600480360381019080803590602001909291905050506116ad565b005b34801561069e57600080fd5b506106a761182a565b6040518082815260200191505060405180910390f35b3480156106c957600080fd5b506106d2611830565b6040518082815260200191505060405180910390f35b3480156106f457600080fd5b506106fd611836565b604051808273ffffffffffffffffffffffffffffffffffffffff1673ffffffffffffffffffffffffffffffffffffffff16815260200191505060405180910390f35b34801561074b57600080fd5b5061076a6004803603810190808035906020019092919050505061185c565b604051808981526020018881526020018781526020018681526020018581526020018473ffffffffffffffffffffffffffffffffffffffff1673ffffffffffffffffffffffffffffffffffffffff16815260200183151515158152602001821515151581526020019850505050505050505060405180910390f35b3480156107f157600080fd5b506107fa6118de565b604051808681526020018581526020018481526020018381526020018281526020019550505050505060405180910390f35b34801561083857600080fd5b506108416119f4565b6040518082815260200191505060405180910390f35b34801561086357600080fd5b5061086c6119fa565b6040518082815260200191505060405180910390f35b34801561088e57600080fd5b506108c3600480360381019080803573ffffffffffffffffffffffffffffffffffffffff169060200190929190505050611a00565b6040518082815260200191505060405180910390f35b3480156108e557600080fd5b506108ee611ad4565b6040518082815260200191505060405180910390f35b34801561091057600080fd5b50610919611b1d565b6040518082815260200191505060405180910390f35b34801561093b57600080fd5b5061099360048036038101908080359060200190820180359060200190808060200260200160405190810160405280939291908181526020018383602002808284378201915050505050509192919290505050611b23565b005b3480156109a157600080fd5b506109aa611c0d565b604051808273ffffffffffffffffffffffffffffffffffffffff1673ffffffffffffffffffffffffffffffffffffffff16815260200191505060405180910390f35b3480156109f857600080fd5b50610a01611c32565b6040518082815260200191505060405180910390f35b348015610a2357600080fd5b50610a2c611c38565b604051808215151515815260200191505060405180910390f35b610a6e6004803603810190808035906020019092919080359060200190929190505050610cc3565b005b348015610a7c57600080fd5b50610ab1600480360381019080803573ffffffffffffffffffffffffffffffffffffffff169060200190929190505050611c4b565b604051808215151515815260200191505060405180910390f35b348015610ad757600080fd5b50610b006004803603810190808035906020019092919080359060200190929190505050611c6b565b6040518082815260200191505060405180910390f35b610b3e6004803603810190808035906020019092919080359060200190929190505050611cf6565b005b348015610b4c57600080fd5b50610b6b60048036038101908080359060200190929190505050610d95565b005b348015610b7957600080fd5b50610b82611d0d565b6040518082815260200191505060405180910390f35b348015610ba457600080fd5b50610bad611d13565b6040518082815260200191505060405180910390f35b348015610bcf57600080fd5b50610c04600480360381019080803573ffffffffffffffffffffffffffffffffffffffff169060200190929190505050611d19565b005b348015610c1257600080fd5b50610c1b611db8565b604051808273ffffffffffffffffffffffffffffffffffffffff1673ffffffffffffffffffffffffffffffffffffffff16815260200191505060405180910390f35b348015610c6957600080fd5b50610cc160048036038101908080359060200190820180359060200190808060200260200160405190810160405280939291908181526020018383602002808284378201915050505050509192919290505050611dde565b005b601260003373ffffffffffffffffffffffffffffffffffffffff1673ffffffffffffffffffffffffffffffffffffffff16815260200190815260200160002060009054906101000a900460ff1680610d7c5750601160003373ffffffffffffffffffffffffffffffffffffffff1673ffffffffffffffffffffffffffffffffffffffff16815260200190815260200160002060009054906101000a900460ff168015610d7b5750601054610d7633611a00565b340111155b5b1515610d8757600080fd5b610d918282611ec8565b5050565b60008060026000848152602001908152602001600020915060026000600d5481526020019081526020016000209050600c60009054906101000a900460ff161515610ddf57600080fd5b8160050160159054906101000a900460ff16151515610dfd57600080fd5b60018260050160156101000a81548160ff021916908315150217905550806002015482600201541180610e45575080600201548260020154148015610e445750600d548310155b5b15610fae57600960009054906101000a900473ffffffffffffffffffffffffffffffffffffffff1673ffffffffffffffffffffffffffffffffffffffff1663a9059cbb8360050160009054906101000a900473ffffffffffffffffffffffffffffffffffffffff16600f54633b9aca008660040154876003015402811515610ec957fe5b04866003015401600a5402811515610edd57fe5b046040518363ffffffff167c0100000000000000000000000000000000000000000000000000000000028152600401808373ffffffffffffffffffffffffffffffffffffffff1673ffffffffffffffffffffffffffffffffffffffff16815260200182815260200192505050602060405180830381600087803b158015610f6357600080fd5b505af1158015610f77573d6000803e3d6000fd5b505050506040513d6020811015610f8d57600080fd5b81019080805190602001909291905050501515610fa957600080fd5b61101e565b8160050160009054906101000a900473ffffffffffffffffffffffffffffffffffffffff1673ffffffffffffffffffffffffffffffffffffffff166108fc83600301549081150290604051600060405180830381858888f1935050505015801561101c573d6000803e3d6000fd5b505b505050565b600080600080600080600854421015151561103d57600080fd5b600c60009054906101000a900460ff1615151561105957600080fd5b600d549550600e549450600f549350600092505b86831080156110895750600c60009054906101000a900460ff16155b156112395760026000878152602001908152602001600020915081600201548583600301540110156110ee57816003015485019450633b9aca0082600401548360030154028115156110d757fe5b04826003015401840193508160000154955061122e565b6001600c60006101000a81548160ff021916908315150217905550848260020154101561111c576000611124565b848260020154035b90508160030154811061113b57816003015461113d565b805b90508160050160009054906101000a900473ffffffffffffffffffffffffffffffffffffffff1673ffffffffffffffffffffffffffffffffffffffff166108fc828460030154039081150290604051600060405180830381858888f1935050505050808260030181905550816003015485019450633b9aca0082600401548360030154028115156111ca57fe5b0482600301540184019350600160009054906101000a900473ffffffffffffffffffffffffffffffffffffffff1673ffffffffffffffffffffffffffffffffffffffff166108fc869081150290604051600060405180830381858888f19350505050505b82600101925061106d565b85600d8190555084600e8190555083600f8190555050505050505050565b60003373ffffffffffffffffffffffffffffffffffffffff16601360009054906101000a900473ffffffffffffffffffffffffffffffffffffffff1673ffffffffffffffffffffffffffffffffffffffff161415156112b557600080fd5b600090505b815181101561133d5760006012600084848151811015156112d757fe5b9060200190602002015173ffffffffffffffffffffffffffffffffffffffff1673ffffffffffffffffffffffffffffffffffffffff16815260200190815260200160002060006101000a81548160ff0219169083151502179055508060010190506112ba565b5050565b600a5481565b3373ffffffffffffffffffffffffffffffffffffffff166000809054906101000a900473ffffffffffffffffffffffffffffffffffffffff1673ffffffffffffffffffffffffffffffffffffffff161415156113a257600080fd5b600073ffffffffffffffffffffffffffffffffffffffff16600960009054906101000a900473ffffffffffffffffffffffffffffffffffffffff1673ffffffffffffffffffffffffffffffffffffffff161415156113ff57600080fd5b80600960006101000a81548173ffffffffffffffffffffffffffffffffffffffff021916908373ffffffffffffffffffffffffffffffffffffffff160217905550600960009054906101000a900473ffffffffffffffffffffffffffffffffffffffff1673ffffffffffffffffffffffffffffffffffffffff166370a08231306040518263ffffffff167c0100000000000000000000000000000000000000000000000000000000028152600401808273ffffffffffffffffffffffffffffffffffffffff1673ffffffffffffffffffffffffffffffffffffffff168152602001915050602060405180830381600087803b1580156114fd57600080fd5b505af1158015611511573d6000803e3d6000fd5b505050506040513d602081101561152757600080fd5b8101908080519060200190929190505050600a8190555050565b600f5481565b60003373ffffffffffffffffffffffffffffffffffffffff16601360009054906101000a900473ffffffffffffffffffffffffffffffffffffffff1673ffffffffffffffffffffffffffffffffffffffff161415156115a557600080fd5b600090505b815181101561162d5760016011600084848151811015156115c757fe5b9060200190602002015173ffffffffffffffffffffffffffffffffffffffff1673ffffffffffffffffffffffffffffffffffffffff16815260200190815260200160002060006101000a81548160ff0219169083151502179055508060010190506115aa565b5050565b600d5481565b60036020528160005260406000208181548110151561165257fe5b90600052602060002001600091509150505481565b601360009054906101000a900473ffffffffffffffffffffffffffffffffffffffff1681565b60116020528060005260406000206000915054906101000a900460ff1681565b6000806002600084815260200190815260200160002091508160050160009054906101000a900473ffffffffffffffffffffffffffffffffffffffff1673ffffffffffffffffffffffffffffffffffffffff163373ffffffffffffffffffffffffffffffffffffffff1614151561172357600080fd5b6007544210151561173357600080fd5b8160050160149054906101000a900460ff1615151561175157600080fd5b60018260050160146101000a81548160ff02191690831515021790555060065442106117985760065460075403426007540383600301540281151561179257fe5b0461179e565b81600301545b9050816003015481111515156117b057fe5b808260030160008282540392505081905550600360028360040154028115156117d557fe5b0482600401819055503373ffffffffffffffffffffffffffffffffffffffff166108fc829081150290604051600060405180830381858888f19350505050158015611824573d6000803e3d6000fd5b50505050565b60085481565b60075481565b600160009054906101000a900473ffffffffffffffffffffffffffffffffffffffff1681565b60026020528060005260406000206000915090508060000154908060010154908060020154908060030154908060040154908060050160009054906101000a900473ffffffffffffffffffffffffffffffffffffffff16908060050160149054906101000a900460ff16908060050160159054906101000a900460ff16905088565b600080600080600080600260007fffffffffffffffffffffffffffffffffffffffffffffffffffffffffffffffff81526020019081526020016000206000015493505b6000841415156119d357600260008581526020019081526020016000209050806002015486826003015401101561198b57806003015486019550633b9aca00816004015482600301540281151561197457fe5b0481600301540185019450806000015493506119ce565b858160020154101561199e5760006119a6565b858160020154035b91508186019550633b9aca00816004015483028115156119c257fe5b048201850194506119d3565b611921565b60026000858152602001908152602001600020600201549250509091929394565b600b5481565b60045481565b600080600090505b600360008473ffffffffffffffffffffffffffffffffffffffff1673ffffffffffffffffffffffffffffffffffffffff16815260200190815260200160002080549050811015611ace5760026000600360008673ffffffffffffffffffffffffffffffffffffffff1673ffffffffffffffffffffffffffffffffffffffff16815260200190815260200160002083815481101515611aa257fe5b906000526020600020015481526020019081526020016000206003015482019150806001019050611a08565b50919050565b6000600654421015611aea57600b549050611b1a565b600854421115611afd5760009050611b1a565b600654600854034260085403600b5402811515611b1657fe5b0490505b90565b60055481565b60003373ffffffffffffffffffffffffffffffffffffffff16601360009054906101000a900473ffffffffffffffffffffffffffffffffffffffff1673ffffffffffffffffffffffffffffffffffffffff16141515611b8157600080fd5b600090505b8151811015611c09576000601160008484815181101515611ba357fe5b9060200190602002015173ffffffffffffffffffffffffffffffffffffffff1673ffffffffffffffffffffffffffffffffffffffff16815260200190815260200160002060006101000a81548160ff021916908315150217905550806001019050611b86565b5050565b6000809054906101000a900473ffffffffffffffffffffffffffffffffffffffff1681565b60105481565b600c60009054906101000a900460ff1681565b60126020528060005260406000206000915054906101000a900460ff1681565b6000806000806000808694505b831515611ce857600260008681526020019081526020016000209250826000015491506002600083815260200190815260200160002090508060020154881015611cc457819450611ce3565b826002015488101515611cdd5782600101549450611ce2565b600193505b5b611c78565b849550505050505092915050565b611d0982611d048484611c6b565b610cc3565b5050565b600e5481565b60065481565b3373ffffffffffffffffffffffffffffffffffffffff166000809054906101000a900473ffffffffffffffffffffffffffffffffffffffff1673ffffffffffffffffffffffffffffffffffffffff16141515611d7457600080fd5b80601360006101000a81548173ffffffffffffffffffffffffffffffffffffffff021916908373ffffffffffffffffffffffffffffffffffffffff16021790555050565b600960009054906101000a900473ffffffffffffffffffffffffffffffffffffffff1681565b60003373ffffffffffffffffffffffffffffffffffffffff16601360009054906101000a900473ffffffffffffffffffffffffffffffffffffffff1673ffffffffffffffffffffffffffffffffffffffff16141515611e3c57600080fd5b600090505b8151811015611ec4576001601260008484815181101515611e5e57fe5b9060200190602002015173ffffffffffffffffffffffffffffffffffffffff1673ffffffffffffffffffffffffffffffffffffffff16815260200190815260200160002060006101000a81548160ff021916908315150217905550806001019050611e41565b5050565b60008060006002600085815260200190815260200160002092508260000154915060026000838152602001908152602001600020905080600201548510158015611f155750826002015485105b1515611f2057600080fd5b6005544210158015611f33575060085442105b1515611f3e57600080fd5b600460008154600101919050819055506004548160010181905550600454836000018190555061010060405190810160405280838152602001858152602001868152602001348152602001611f91611ad4565b81526020013373ffffffffffffffffffffffffffffffffffffffff16815260200160001515815260200160001515815250600260006004548152602001908152602001600020600082015181600001556020820151816001015560408201518160020155606082015181600301556080820151816004015560a08201518160050160006101000a81548173ffffffffffffffffffffffffffffffffffffffff021916908373ffffffffffffffffffffffffffffffffffffffff16021790555060c08201518160050160146101000a81548160ff02191690831515021790555060e08201518160050160156101000a81548160ff021916908315150217905550905050600360003373ffffffffffffffffffffffffffffffffffffffff1673ffffffffffffffffffffffffffffffffffffffff1681526020019081526020016000206004549080600181540180825580915050906001820390600052602060002001600090919290919091505550426004543373ffffffffffffffffffffffffffffffffffffffff167f84bee513033536a8de8a8260e2674a4a3eebd61ddce74615fdeca8a1499f5efe60405160405180910390a450505050505600a165627a7a723058209b75b5ade48a4afa0f78664588e214b100b8244c723e132ad0318b7e8c026ee90029",
  "source": "/** @title Level Whitelisted Interactive Coin Offering\n *  @author Clment Lesaege - <clement@lesaege.com>\n */\n\npragma solidity ^0.4.23;\n\nimport \"./IICO.sol\";\n\n/** @title Level Whitelisted Interactive Coin Offering\n *  This contract implements an Interactive Coin Offering with two whitelists:\n *  - The base one, with limited contribution.\n *  - The reinforced one, with unlimited contribution.\n */\ncontract LevelWhitelistedIICO is IICO {\n    \n    uint public maximumBaseContribution;\n    mapping (address => bool) public baseWhitelist; // True if in the base whitelist (has a contribution limit).\n    mapping (address => bool) public reinforcedWhitelist; // True if in the reinforced whitelist (does not have a contribution limit).\n    address public whitelister; // The party which can add or remove people from the whitelist.\n    \n    modifier onlyWhitelister{ require(whitelister == msg.sender); _; }\n    \n    /** @dev Constructor. First contract set up (tokens will also need to be transferred to the contract and then setToken needs to be called to finish the setup).\n     *  @param _startTime Time the sale will start in seconds since the Unix Epoch.\n     *  @param _fullBonusLength Amount of seconds the sale lasts in the full bonus period.\n     *  @param _partialWithdrawalLength Amount of seconds the sale lasts in the partial withdrawal period.\n     *  @param _withdrawalLockUpLength Amount of seconds the sale lasts in the withdrawal lockup period.\n     *  @param _maxBonus The maximum bonus. Will be normalized by BONUS_DIVISOR. For example for a 20% bonus, _maxBonus must be 0.2 * BONUS_DIVISOR.\n     *  @param _beneficiary The party which will get the funds of the token sale.\n     *  @param _maximumBaseContribution The maximum contribution for buyers on the base list.\n     */\n    function LevelWhitelistedIICO(uint _startTime, uint _fullBonusLength, uint _partialWithdrawalLength, uint _withdrawalLockUpLength, uint _maxBonus, address _beneficiary, uint _maximumBaseContribution) IICO(_startTime,_fullBonusLength,_partialWithdrawalLength,_withdrawalLockUpLength,_maxBonus,_beneficiary) public {\n        maximumBaseContribution=_maximumBaseContribution;\n    }\n    \n    /** @dev Submit a bid. The caller must give the exact position the bid must be inserted into in the list.\n     *  In practice, use searchAndBid to avoid the position being incorrect due to a new bid being inserted and changing the position the bid must be inserted at.\n     *  @param _maxValuation The maximum valuation given by the contributor. If the amount raised is higher, the bid is cancelled and the contributor refunded because it prefers a refund instead of this level of dilution. To buy no matter what, use INFINITY.\n     *  @param _next The bidID of the next bid in the list.\n     */\n    function submitBid(uint _maxValuation, uint _next) public payable {\n        require(reinforcedWhitelist[msg.sender] || (baseWhitelist[msg.sender] && (msg.value + totalContrib(msg.sender) <= maximumBaseContribution))); // Check if the buyer is in the reinforced whitelist or if it is on the base one and this would not make its total contribution exceed the limit.\n        super.submitBid(_maxValuation,_next);\n    }\n    \n    /** @dev Set the whitelister.\n     *  @param _whitelister The whitelister.\n     */\n    function setWhitelister(address _whitelister) public onlyOwner {\n        whitelister=_whitelister;\n    }\n    \n    /** @dev Add buyers to the base whitelist.\n     *  @param _buyersToWhitelist Buyers to add to the whitelist.\n     */\n    function addBaseWhitelist(address[] _buyersToWhitelist) public onlyWhitelister {\n        for(uint i=0;i<_buyersToWhitelist.length;++i)\n            baseWhitelist[_buyersToWhitelist[i]]=true;\n    }\n    \n    /** @dev Add buyers to the reinforced whitelist.\n     *  @param _buyersToWhitelist Buyers to add to the whitelist.\n     */\n    function addReinforcedWhitelist(address[] _buyersToWhitelist) public onlyWhitelister {\n        for(uint i=0;i<_buyersToWhitelist.length;++i)\n            reinforcedWhitelist[_buyersToWhitelist[i]]=true;\n    }\n    \n    /** @dev Remove buyers from the base whitelist.\n     *  @param _buyersToRemove Buyers to remove from the whitelist.\n     */\n    function removeBaseWhitelist(address[] _buyersToRemove) public onlyWhitelister {\n        for(uint i=0;i<_buyersToRemove.length;++i)\n            baseWhitelist[_buyersToRemove[i]]=false;\n    }\n    \n    /** @dev Remove buyers from the reinforced whitelist.\n     *  @param _buyersToRemove Buyers to remove from the whitelist.\n     */\n    function removeReinforcedWhitelist(address[] _buyersToRemove) public onlyWhitelister {\n        for(uint i=0;i<_buyersToRemove.length;++i)\n            reinforcedWhitelist[_buyersToRemove[i]]=false;\n    }\n\n}\n",
  "sourcePath": "/Users/epiqueras/Work/kleros/openiico-contract/contracts/LevelWhitelistedIICO.sol",
  "compiler": {
    "name": "solc",
    "version": "0.4.23+commit.124ca40d.Emscripten.clang"
  },
  "schemaVersion": "2.0.0",
  "updatedAt": "2018-05-11T00:52:53.475Z"
}